{"abi":[{"type":"function","name":"agentIdOf","inputs":[{"name":"","type":"address","internalType":"address"}],"outputs":[{"name":"","type":"uint256","internalType":"uint256"}],"stateMutability":"view"},{"type":"function","name":"agents","inputs":[{"name":"","type":"uint256","internalType":"uint256"}],"outputs":[{"name":"wallet","type":"address","internalType":"address"},{"name":"name","type":"string","internalType":"string"}],"stateMutability":"view"},{"type":"function","name":"nameOf","inputs":[{"name":"wallet","type":"address","internalType":"address"}],"outputs":[{"name":"","type":"string","internalType":"string"}],"stateMutability":"view"},{"type":"function","name":"nextAgentId","inputs":[],"outputs":[{"name":"","type":"uint256","internalType":"uint256"}],"stateMutability":"view"},{"type":"function","name":"register","inputs":[{"name":"name","type":"string","internalType":"string"}],"outputs":[{"name":"agentId","type":"uint256","internalType":"uint256"}],"stateMutability":"nonpayable"},{"type":"function","name":"remove","inputs":[],"outputs":[],"stateMutability":"nonpayable"},{"type":"function","name":"setName","inputs":[{"name":"newName","type":"string","internalType":"string"}],"outputs":[],"stateMutability":"nonpayable"},{"type":"function","name":"walletOf","inputs":[{"name":"agentId","type":"uint256","internalType":"uint256"}],"outputs":[{"name":"","type":"address","internalType":"address"}],"stateMutability":"view"},{"type":"event","name":"AgentRegistered","inputs":[{"name":"agentId","type":"uint256","indexed":true,"internalType":"uint256"},{"name":"wallet","type":"address","indexed":true,"internalType":"address"},{"name":"name","type":"string","indexed":false,"internalType":"string"}],"anonymous":false},{"type":"event","name":"AgentRemoved","inputs":[{"name":"agentId","type":"uint256","indexed":true,"internalType":"uint256"},{"name":"wallet","type":"address","indexed":true,"internalType":"address"}],"anonymous":false},{"type":"event","name":"AgentRenamed","inputs":[{"name":"agentId","type":"uint256","indexed":true,"internalType":"uint256"},{"name":"oldName","type":"string","indexed":false,"internalType":"string"},{"name":"newName","type":"string","indexed":false,"internalType":"string"}],"anonymous":false},{"type":"error","name":"AlreadyRegistered","inputs":[]},{"type":"error","name":"NameEmpty","inputs":[]},{"type":"error","name":"NameTaken","inputs":[]},{"type":"error","name":"NotRegistered","inputs":[]}],"bytecode":{"object":"0x608060405260015f553480156012575f5ffd5b50610c5c806100205f395ff3fe608060405234801561000f575f5ffd5b5060043610610085575f3560e01c8063e0fa88e111610058578063e0fa88e1146100e2578063e9c9ec7314610122578063f2c298be14610141578063f5c5738214610154575f5ffd5b806330efc49814610089578063513856c8146100a4578063a7f43779146100c5578063c47f0027146100cf575b5f5ffd5b6100915f5481565b6040519081526020015b60405180910390f35b6100b76100b2366004610849565b610174565b60405161009b92919061088e565b6100cd610221565b005b6100cd6100dd3660046108b9565b61039b565b61010a6100f0366004610849565b5f908152600160205260409020546001600160a01b031690565b6040516001600160a01b03909116815260200161009b565b610091610130366004610927565b60026020525f908152604090205481565b61009161014f3660046108b9565b610569565b610167610162366004610927565b610720565b60405161009b9190610954565b600160208190525f9182526040909120805491810180546001600160a01b03909316926101a090610966565b80601f01602080910402602001604051908101604052809291908181526020018280546101cc90610966565b80156102175780601f106101ee57610100808354040283529160200191610217565b820191905f5260205f20905b8154815290600101906020018083116101fa57829003601f168201915b5050505050905082565b335f90815260026020526040812054908190036102515760405163aba4733960e01b815260040160405180910390fd5b5f818152600160208181526040808420815180830190925280546001600160a01b03168252928301805491939284019161028a90610966565b80601f01602080910402602001604051908101604052809291908181526020018280546102b690610966565b80156103015780601f106102d857610100808354040283529160200191610301565b820191905f5260205f20905b8154815290600101906020018083116102e457829003601f168201915b505050505081525050905060038160200151604051610320919061099e565b90815260408051602092819003830190205f9081905584815260019283905290812080546001600160a01b03191681559161035d908301826107f7565b5050335f818152600260205260408082208290555184917f8f1a3744946a8eb046190ae493ca46bf975c8610e25f5ed3e41e3a525175372991a35050565b335f90815260026020526040812054908190036103cb5760405163aba4733960e01b815260040160405180910390fd5b5f8290036103ec57604051631ff3ed9d60e01b815260040160405180910390fd5b600383836040516103fe9291906109b4565b9081526020016040518091039020545f1461042c57604051639e4b268560e01b815260040160405180910390fd5b5f818152600160208190526040822001805461044790610966565b80601f016020809104026020016040519081016040528092919081815260200182805461047390610966565b80156104be5780601f10610495576101008083540402835291602001916104be565b820191905f5260205f20905b8154815290600101906020018083116104a157829003601f168201915b505050505090506003816040516104d5919061099e565b90815260408051602092819003830190205f908190558481526001928390522001610501848683610a23565b5081600385856040516105159291906109b4565b908152602001604051809103902081905550817fffcea8c5f3356c76470c934239c6ef08446231f3078c1cdfa7cadeb2e4fb110f82868660405161055b93929190610b05565b60405180910390a250505050565b5f81810361058a57604051631ff3ed9d60e01b815260040160405180910390fd5b335f90815260026020526040902054156105b757604051630ea075bf60e21b815260040160405180910390fd5b600383836040516105c99291906109b4565b9081526020016040518091039020545f146105f757604051639e4b268560e01b815260040160405180910390fd5b5f8054908061060583610b34565b9190505590506040518060400160405280336001600160a01b0316815260200184848080601f0160208091040260200160405190810160405280939291908181526020018383808284375f920182905250939094525050838152600160208181526040909220845181546001600160a01b0319166001600160a01b039091161781559184015191925082019061069b9082610b58565b5050335f9081526002602052604090819020839055518291506003906106c490869086906109b4565b908152602001604051809103902081905550336001600160a01b0316817f0d063c6022bff16d09991a9f91882ffa112f5fb2529136f65eb4c77bbd047e438585604051610712929190610c13565b60405180910390a392915050565b6001600160a01b0381165f9081526002602052604081205460609181900361075757505060408051602081019091525f8152919050565b5f81815260016020819052604090912001805461077390610966565b80601f016020809104026020016040519081016040528092919081815260200182805461079f90610966565b80156107ea5780601f106107c1576101008083540402835291602001916107ea565b820191905f5260205f20905b8154815290600101906020018083116107cd57829003601f168201915b5050505050915050919050565b50805461080390610966565b5f825580601f10610812575050565b601f0160209004905f5260205f209081019061082e9190610831565b50565b5b80821115610845575f8155600101610832565b5090565b5f60208284031215610859575f5ffd5b5035919050565b5f81518084528060208401602086015e5f602082860101526020601f19601f83011685010191505092915050565b6001600160a01b03831681526040602082018190525f906108b190830184610860565b949350505050565b5f5f602083850312156108ca575f5ffd5b823567ffffffffffffffff8111156108e0575f5ffd5b8301601f810185136108f0575f5ffd5b803567ffffffffffffffff811115610906575f5ffd5b856020828401011115610917575f5ffd5b6020919091019590945092505050565b5f60208284031215610937575f5ffd5b81356001600160a01b038116811461094d575f5ffd5b9392505050565b602081525f61094d6020830184610860565b600181811c9082168061097a57607f821691505b60208210810361099857634e487b7160e01b5f52602260045260245ffd5b50919050565b5f82518060208501845e5f920191825250919050565b818382375f9101908152919050565b634e487b7160e01b5f52604160045260245ffd5b601f821115610a1e57805f5260205f20601f840160051c810160208510156109fc5750805b601f840160051c820191505b81811015610a1b575f8155600101610a08565b50505b505050565b67ffffffffffffffff831115610a3b57610a3b6109c3565b610a4f83610a498354610966565b836109d7565b5f601f841160018114610a80575f8515610a695750838201355b5f19600387901b1c1916600186901b178355610a1b565b5f83815260208120601f198716915b82811015610aaf5786850135825560209485019460019092019101610a8f565b5086821015610acb575f1960f88860031b161c19848701351681555b505060018560011b0183555050505050565b81835281816020850137505f828201602090810191909152601f909101601f19169091010190565b604081525f610b176040830186610860565b8281036020840152610b2a818587610add565b9695505050505050565b5f60018201610b5157634e487b7160e01b5f52601160045260245ffd5b5060010190565b815167ffffffffffffffff811115610b7257610b726109c3565b610b8681610b808454610966565b846109d7565b6020601f821160018114610bb8575f8315610ba15750848201515b5f19600385901b1c1916600184901b178455610a1b565b5f84815260208120601f198516915b82811015610be75787850151825560209485019460019092019101610bc7565b5084821015610c0457868401515f19600387901b60f8161c191681555b50505050600190811b01905550565b602081525f6108b1602083018486610add56fea26469706673582212202b313c117c69843e8f2e694d64d7bbcd36b2bb79718c5bce5e56536252b7c5ce64736f6c634300081b0033","linkReferences":{}},"methodIdentifiers":{"agentIdOf(address)":"e9c9ec73","agents(uint256)":"513856c8","nameOf(address)":"f5c57382","nextAgentId()":"30efc498","register(string)":"f2c298be","remove()":"a7f43779","setName(string)":"c47f0027","walletOf(uint256)":"e0fa88e1"},"id":0}